:020000040800F2
:100000000020002005070008FD060008FF06000884
:1000100000000000000000000000000000000000E0
:1000200000000000000000000000000001070008C0
:100030000000000000000000030700083105000870
:10004000A5070008A5070008A5070008A5070008E0
:10005000A5070008A5070008A5070008A5070008D0
:10006000A5070008A5070008A5070008A5070008C0
:10007000A5070008A5070008A5070008A5070008B0
:10008000A5070008A507000800000000A507000854
:10009000A5070008A5070008A5070008A507000890
:1000A000A5070008A5070008A507000851020008D9
:1000B000D101000800000000A507000800000000B2
:1000C00010B5064C2378002B07D1054B002B02D02E
:1000D000044800E000BF0123237010BD5C04002031
:1000E00000000000341D000808B5044B002B03D0AD
:1000F0000348044900E000BF08BDC04600000000FE
:10010000341D00086004002002780B7801300131B2
:10011000002A01D09A42F7D0D01A704702B4714633
:1001200049084900095C49008E4402BC7047C0463A
:10013000002934D00123002210B488422CD301249A
:100140002407A14204D2814202D209011B01F8E72F
:10015000E400A14204D2814202D249005B00F8E7E8
:10016000884201D3401A1A434C08A04202D3001B14
:100170005C0822438C08A04202D3001B9C08224347
:10018000CC08A04202D3001BDC082243002803D085
:100190001B0901D00909E3E7101C10BC70470028B7
:1001A00001D00020C04307B4024802A140180290C9
:1001B00003BDC046190000000029F0D003B5FFF7C9
:1001C000B9FF0EBC4243891A1847C0467047C04663
:1001D00008B5024800F0FEF808BDC0467C1D0008C6
:1001E00030B589B002AC0B4A231C23CA23C323CAEF
:1001F00023C301A81C23037001234370837001F003
:1002000045FC211C044800F067F8044800F00CFC91
:1002100009B030BD4C1D00087C1D0008901D000871
:1002200008B5011C014800F01FF908BD7C1D00083D
:1002300008B5024800F040F9C0B208BD7C1D0008B6
:1002400008B5024800F0C0F808BDC0467C1D000893
:1002500008B5024800F0BEF808BDC046D41D00082D
:1002600030B589B002AC094A231C23CA23C323CA70
:1002700023C301A81B2303700123837001F006FC34
:100280000348211C00F028F809B030BD641D0008A7
:10029000D41D000807B51B2301A803700023837039
:1002A00001F0F4FB07BD000008B5011C014800F097
:1002B000DBF808BDD41D000808B5024800F0FCF8C2
:1002C000C0B208BDD41D000808B5024800F07CF893
:1002D00008BDC046D41D0008F0B5436800221A606E
:1002E0005A609A60DA60036885B0041C0191D8698D
:1002F000D968DB6A08431843012101F0A3FB2F4DA5
:100300002368A26818680121AA4202D101F0A6FB65
:1003100001E001F0AFFB23685868198A9A7C01F06C
:1003200028FC23685869198C0333DA7F01F021FC1B
:10033000A368AB420AD12368586A198E32331A78FF
:1003400001F017FCA068012101F092FA23686946C8
:100350001A89012500260292032702220A734F738D
:100360008E73CD73586802A901F0C8FB23686946F3
:100370001A8D586A029202220A734F738E73CE73DB
:1003800002A901F0BBFB236802A91A8B58690292EB
:1003900001F0B4FBA068019901F000FAA0682A1CE2
:1003A000074901F073FAA0682A1C064901F06EFAA9
:1003B000A068291C01F04AFA05B0F0BD00380140E0
:1003C0000501050007010700436818685B68C01A4B
:1003D0007047000070B51F49041C806801F06DFA79
:1003E000002816D0A06801F03FFA061C201CFFF779
:1003F000EBFFE1688B1E98420BDA6568F6B228685D
:10040000FFF7DAFE2B6959180E7063681A6801321B
:100410001A60A068104901F050FA002818D06368EB
:10042000A5689968DA6891420DD0D8682169421CA4
:10043000DA605E69FFF7C0FE76183178281CC9B211
:1004400001F00EFA04E0281C0349002201F01EFA14
:1004500070BDC046050105000701070043689868A4
:10046000DB68C01A7047000070B5041C0E1C201C0D
:10047000FFF7F4FF2369023B9842F8DA201CFFF7EC
:10048000EDFF23690022991E884211DA6568191C64
:10049000A868FFF791FE6B6959180E706368A06831
:1004A0009A68044901329A60012201F0EFF90122B1
:1004B000101C70BD070107004368021C18685968CA
:1004C00010B588420AD058681C69411C5960D1682F
:1004D000FFF772FE64182078C0B201E001204042AC
:1004E00010BD000010B58AB0041C01A801F004FA88
:1004F0000298211CFFF71CFE0A4B013898420DD8C8
:10050000094B0A4A5860106AC0210002000A090615
:100510000143116200229A6007221A6000200AB08B
:1005200010BDC046FFFFFF0010E000E000ED00E05E
:1005300008B5074BFA211868890001301860FFF7E9
:100540003BFE002903D1034B1A6801321A6008BD33
:10055000780400207C04002013B5074A031C1268AD
:100560000192002905D0019C0068241A00208C42C9
:1005700001D31A60012016BD7804002013B5064B84
:10058000041C1B68019300936846211CFFF7E4FFDD
:100590000028F9D013BDC04678040020344B012256
:1005A000196882B011431960586832490140596096
:1005B00018683149014019601868304901401960D4
:1005C00058682F4901405960D96A0F208143D96288
:1005D000186B2C4901401963596B914300225963F0
:1005E0009A60009201921968802252020A431A60AE
:1005F0001968802292021140019100990131009105
:100600000199002904D10098A021C9018842EFD1A5
:1006100019680A4000D001220192019A012A25D1CD
:10062000194A112111605A685A605A685A6059680B
:10063000164A0A405A605968882252030A435A608F
:100640001968802252040A431A601968084A88010E
:10065000FBD551680320814351605168022001435A
:10066000516059680C220A40082AFAD102B070473A
:10067000001002400CB8FF08FFFFF6FEFFFFFBFF73
:10068000FFFFC0FFACFEFFFF00200240FF7FC0FF66
:1006900070B5154D0C236A68144C1340042B01D01F
:1006A000082B02D0124B236014E06E68C023B60200
:1006B0006A68360F5B0202361A4202D10D4B5E4366
:1006C00007E0E96A0F23194001310948FFF730FDBF
:1006D000464326606B68084A1B061B0FD35C2268E2
:1006E000DA40226070BDC046001002404000002089
:1006F00000127A0000093D00300000207047FEE73C
:10070000704770471A480168003915D019480168C8
:10071000194A0A430260C046C046C046C046C046A9
:1007200016480168164A0A40003A05D01548006884
:10073000854615480068004714488546002103E0B7
:10074000134B5B58435004311248134B42189A42E2
:10075000F6D3124A02E0002313600432104B9A428F
:10076000F9D3FFF71BFF01F09BFA00F0A7FCFEE7AF
:1007700000FC0008141002400000020010000048B5
:100780000020000000500008045000080020002055
:10079000B4220008000000205C0400205C0400205B
:1007A00078120020FEE710B50C1C00281AD0012892
:1007B00008D10A2902D10D20FFF732FDE0B2FFF780
:1007C0002FFD0FE0022808D10A2902D10D20FFF7E2
:1007D0006BFDE0B2FFF768FD04E003681970036881
:1007E0000133036010BDF7B5141C00900191002A7D
:1007F0000FDD0A1C0199501A1178002901D001322D
:10080000F8E7A04201DA241A00E00C1C30279A070E
:1008100000D420270025D9070CD4251C002D05DD88
:100820000098391CFFF7BFFF013DF7E7E543ED17DF
:100830002540641B2E1C019A531B995D002904D08E
:100840000098FFF7B0FF0136F5E7251C002D05DD08
:100850000098391CFFF7A7FF013DF7E7E043C017F9
:1008600004403019FEBDF0B587B0071C00920C1E85
:1008700009D103AB30221A7059700C9A191C0D9BC8
:10088000FFF7B1FF42E000220192934207D0009BA4
:100890000A2B04D1914202DA01224C420192002239
:1008A0006B466E46DA751636751C002C11D0201C6E
:1008B0000099FFF781FC092902DD0E9B3A3BC9181C
:1008C00030313170201C0099FFF732FC013E041CCE
:1008D000EAE7019B002B12D00C9A002A0BD00D9B4B
:1008E0009B0708D5381C2D21FFF75DFF0C9A0124CA
:1008F000013A0C9203E0013D2D232B700024381C9B
:10090000291C0C9A0D9BFFF76EFF201807B0F0BD55
:10091000F0B589B0061C0D1C059200242B78002B25
:1009200005D0252B73D169786A1C002905D1102EBA
:1009300074D9336800221A7070E0252966D000232C
:100940002D2901D1AA1C0123151C2A78302A03D194
:10095000022201351343F8E700222978081C3038B9
:10096000C7B2092F04D80A214A4301351218F4E707
:10097000732907D10599081D09680590002941D1FF
:1009800028493FE064290ED10599081D09680193A3
:100990006123059000920293301C0A220123FFF785
:1009A00062FF241838E0782907D10599081D0590C1
:1009B000096801930092612308E058290AD105993A
:1009C000081D059009680193009241230293301C91
:1009D00010220BE075290BD10599081D09680193B8
:1009E0006123059000920293301C0A220023D6E76F
:1009F000632911D10598011D0068059107A90870A8
:100A000000204870301CFFF7EEFECAE7151C29785D
:100A1000301CFFF7C8FE013401357FE7201C09B008
:100A2000F0BDC0461C1E00080FB407B504AA08CAD2
:100A3000044B049918680192FFF76AFF03B008BCE1
:100A400004B018474400002008B5FFF72DFC002033
:100A500008BD0B0A017043700B0C090E8370C17046
:100A600004207047027801290CD043781B021343FD
:100A7000022909D0C178827809061204081C1043A3
:100A8000184302E0101C00E0181C7047F7B5041C66
:100A900055200D1C884700232383A3896E46271CFD
:100AA000F37118370736311C0122381C00F044FC62
:100AB0003078A847A389311C1B0A0122381C3370E7
:100AC00000F03AFC3078A847E389311C0122381C39
:100AD000337000F031FC3078A847E389311C1B0AE1
:100AE0000122381C337000F027FC3078A847207CA6
:100AF000A847211C10310122381C00F01DFC607C2D
:100B0000A847211C11310122381C00F015FCA07CE3
:100B1000A847211C12310122381C00F00DFCE07C9A
:100B2000A847211C1331381C012200F005FC0026C7
:100B3000E37C9E420ADA6369985DA8476369381CC2
:100B40009919012200F0F8FB0136F1E7207EA84751
:100B5000208B000AA847AA20A847E3690020013398
:100B6000E361FEBD08B51148FFF75EFF1048FFF7CF
:100B70005BFFFFF775FB0F48FFF756FF00F09AFC8D
:100B80000D4B81B218800D48FFF74EFF0C4B0D49FD
:100B900000225961802149005A7099605A600A48C0
:100BA0000A4B5A70586199605A6008BD231E0008AC
:100BB000301E000864220008480000203E1E000885
:100BC000F00B0020240C0020240D0020240E002017
:100BD000064B1B888B818389CB81054B1A780123B7
:100BE00013408B74037C0B747047C0464800002090
:100BF0004A000020F7B56D46C84E073500272F7014
:100C00007378341C0D2B00D1D9E0FFF75DFB071E74
:100C100000D1C0E0FFF750FB2870031C70780C284F
:100C200000D9E3E1FFF77AFA0716212D3745505B2B
:100C300066798D909700BA480021FFF78DFCB94B7B
:100C40001A68B94B1A602B78552B01D101237370A8
:100C5000B64896E00022301C72831A30291C01220B
:100C6000B38100F069FB0223BFE1B2891B02301C93
:100C700013431A30291C0122B38100F05DFB0323CA
:100C8000B3E1301C04231A30291C0122737000F0D8
:100C900053FB2B780BE0301C052301221A30291C52
:100CA000737000F049FB2B78F2891B021343E38138
:100CB0009CE1301C06231A30291C0122737000F0BD
:100CC0003BFB2B78337491E1301C07231A30291C2D
:100CD0000122737000F030FB2B78737486E1301CB6
:100CE00008231A30291C0122737000F025FB2B7891
:100CF000B3747BE18E4C0122201C291C00F01CFBEC
:100D00002B78201C1A380022C3744260934201D011
:100D1000092300E00A23437068E170697168435455
:100D200072697368301CD1181A30012200F004FB7C
:100D30007368F27C01337360934200D056E10A235A
:100D400053E10B22727004E00C227270328B1B0292
:100D5000134323834AE1AA2B16D1728B338B9A4219
:100D600009D10D237370736A0021013371487362D6
:100D7000FFF7F2FB3AE1B36A6F480133B362002335
:100D80007370FFF751FE31E1F36A6C480133F3628F
:100D900000237370F5E77378002B00D126E1FA2168
:100DA0005F488900FFF7D8FB002800D11EE16448A6
:100DB000FFF73AFE336B77700133336316E1614B13
:100DC000F2891B88934200D00EE1B2899A4200D189
:100DD0000AE158480521FFF7BFFB002800D105E1D3
:100DE000336A391C013358483362FFF7B5FB574E5D
:100DF000201C311CFFF7ECFE617C351CF12946D02C
:100E000014D8072900D1D1E005D8002900D0E0E0AE
:100E10007174F174DBE07E2900D1D0E07F2900D02D
:100E2000D7E07F2373740023F3741CE0F42900D10E
:100E3000B2E004D8F22931D0F3294BD0C9E0F5292A
:100E400000D195E0F62900D0C3E0F6237374281C86
:100E500000263F49EE74FFF719FE3E4D311C281C59
:100E6000FFF77AFB50E03C49EA7CC95C68690133D2
:100E700081540132EA74112BF5D16969D3B2002291
:100E8000CA54281C01333249EB74FFF7FFFD0023DD
:100E900032486B74EB74FFF7C7FDA1E07174F7740F
:100EA0002F4E3048321C30493B1C00F029FC321CCC
:100EB00000280DD0331C63331F70EB7C6E61591C0E
:100EC000D35CC8B2002B01D0031CF8E7E97487E0BB
:100ED000EF7485E00023F37466690421371C8037C2
:100EE000381CFFF7BFFD214B04211860381CFFF7A9
:100EF000B9FD8021021C301C00F0E8FAF323002821
:100F000000D101236B746BE0281C3221FFF724FB16
:100F10000028F9D000F094FB66E0C046F00B0020FA
:100F2000800B0020780400207C0B0020271F000885
:100F30000A0C00205C0E0020501E00085C1E0008F9
:100F4000681E000848000020580E0020240E0020D3
:100F5000490A0008600E0020721E0008841E000866
:100F6000840B0020005000080000010880040020CD
:100F700075697174F77400F0AFFB2870000A68702F
:100F800002231B49301CF374FFF780FD0F20FFF78D
:100F9000F5FA00F01BFB27E07369502271741F7093
:100FA0005A709F70DF700423F37410E0114B71745A
:100FB00070691968F774FFF74CFDF07407E00E4B89
:100FC00077741F701A7801231340B374F774301CC0
:100FD00007E001236B7409480023EB74FFF724FD3D
:100FE000281C0349FFF752FD00236370F7BDC0467C
:100FF000490A00087C0400204A0000208E1E0008D8
:101000002B4BF0B55A6980252D032A435A615A6942
:101010008024A40222435A6159698022D2020A43E1
:101020005A61244B042289B01A60201C012100F06F
:1010300009FD281C012100F005FD0120011C00F024
:101040000DFD9025201C012100F0FCFCED05201C6D
:10105000012100F00FFD281C0221012200F089FD72
:10106000281C0321012200F084FD6A46032300248A
:1010700053710C2702230126281C694613719471B1
:10108000D671009700F03AFD0394049405940794F8
:10109000094CE1235B02201C02A90293069700F091
:1010A0007DFB201C311C00F0D1FB09B0F0BDC04617
:1010B00000100240000400480044004038B51B4ABC
:1010C0001B4BC0215A601B4A0906106A002500020A
:1010D000000A0143116207229D601A60FFF7D8FAE7
:1010E000FFF78EFFFA208000FFF7FCF9124C291C55
:1010F000201CFFF731FAFFF773F8FFF733FD0F48B5
:10110000FFF792FC0E48FFF78FFC201C3221FFF7FF
:1011100023FA002804D00B4B02219A8A4A409A8273
:1011200000F028F8FFF766FDEFE7C046BF120000A9
:1011300010E000E000ED00E0640E0020251F000834
:10114000721E00080004004808B500F0A9F901204B
:1011500008BD10B5041C002C0ADD0820FFF760F85C
:101160002020FFF75DF80820FFF75AF8013CF2E76E
:1011700010BD0000F8B5FFF763F8002878D0FFF73E
:1011800057F83C4C051C01231B2807D02378002B63
:101190002ED0012B04D15B2828D10223237067E0D5
:1011A000022B23D1412807D1334E3068FFF7D1FFFE
:1011B000324D2968013908E0422817D12E4E306897
:1011C000FFF7C7FF2D4D29680131072739402C4A09
:1011D0002960890151182B48FFF726FC2868284B05
:1011E0000740B801181800F08AFD30600023D5E7E9
:1011F000214C082801D07F280ED12368002B37D03E
:10120000013B08202360FFF70BF82020FFF708F8C8
:101210000820FFF705F82BE0184E194F32689301AC
:1012200022689B18D8550A2806D00D2804D0FEF74E
:10123000F7FF23680133236023683F2B03DC0D2D68
:1012400001D00A2D14D13068072528408001C2182A
:101250000021B9548B4206DD381800F0DFF83368FE
:1012600001331D4035600848FFF7DEFB0023236093
:10127000F8BDC04688040020840400208C040020AF
:101280004B000020EB1F0008291F00087FB5092232
:10129000051C0E1C01A80D4900F028FD0C48FFF7A5
:1012A000C3FB0024AC4207DAA300211CF258094812
:1012B000FFF7BAFB0134F5E701A90748FFF7B4FBD4
:1012C00001A800F0ABF8002004B070BD4D1F00086D
:1012D0002D1F0008361F0008451F000808B500F044
:1012E0005BFC352000F070FC08BD0000F8B5041C64
:1012F000171C0D1C0026BE4219D222680D4B9A42C3
:1013000015D82068296800F0A3FC04280BD12268B6
:1013100004352B1F12681B689A4206D123680136D8
:1013200004332360E7E7012002E0022000E0002010
:10133000F8BDC046FBFF000870B500230488934247
:101340000BDACE5C064D6640F6B27600755B240A79
:101350006C40013304809BB2F0E7A0B270BDC04680
:101360004C020020F8B5051C23480C1CFFF75CFB61
:10137000012D33DD65682B782D2B17D16B786C2B05
:1013800012D11E48FFF750FB1D4C251C21681D483B
:10139000FFF74AFB2B1C0C3430339C42F6D32168F8
:1013A0001948FFF741FB25E0184814E0144C271CAE
:1013B0002668291C301CFEF7A7FE002805D1A2686C
:1013C000311C1348FFF730FB04E03B1C0C343C336A
:1013D0009C42EDD30F48FFF727FB0BE0084C251C80
:1013E0002168A2680C48FFF71FFB2B1C0C343C3310
:1013F0009C42F5D30020F8BD9C1F0008A31F0008E5
:10140000601F0008AE1F0008EA1F0008B31F000895
:10141000C61F0008D21F0008E31F0008F0B5B3B0D4
:10142000011C4022684600F071FC00A811900023C6
:1014300001256946CA5C002A15D0202A10D1002255
:10144000CA545A1C6846815C202901D1131CF8E754
:10145000002905D000A9A8008A1811A94250013519
:1014600001333F2BE5DD0C4C119F261C2068391CF5
:10147000FEF74AFE002804D16368281C11A998478A
:1014800007E0331C0C343C339C42EFD30348FFF796
:10149000CBFA33B0F0BDC046601F0008EE1F000855
:1014A00008B50348FFF7C0FA00F020FBFEE7C0468E
:1014B0007A20000810B5034C03482168FFF7B4FAFE
:1014C000206810BD04FC0008BA200008F7B500230E
:1014D000061C0F1C0193314D314C9A4205D1314B02
:1014E0002A601A80304B22601A60206829684318ED
:1014F0000020934251D12B48311C3A1CFFF71CFFAE
:10150000331C9A1BBA4207DA2268511C21601878F2
:10151000264901338854F4E7226880230120DB0048
:101520009A423AD1204E224833689902214B091839
:10153000994204D92048FFF777FA00202DE01F4890
:10154000FFF772FAFFF7CAFE3168194A880280185D
:1015500000F062FB011E042903D11948FFF764FA69
:1015600002E01848FFF760FA336811489902091839
:1015700015480191FFF758FA80220C49D20001A8C2
:10158000FFF7B4FE33682968013380223360D2004C
:10159000002323608B182B600120FEBD6C0E002001
:1015A000740E0020680E0020700E0020780E0020BF
:1015B00000500008FFFB00083421000854210008F7
:1015C000642200086F2100087D21000813B5154C26
:1015D000154823689902154BC9180191FFF724FAA1
:1015E000FFF77CFE23689802104BC01800F014FB34
:1015F000011E042903D10E48FFF716FA02E00D4838
:10160000FFF712FA01990C48FFF70EFA802201A8A1
:101610000A49D200FFF76AFE2368012001332360E4
:1016200016BDC046700E002054210008005000086E
:10163000642200086F2100087B210008780E00203A
:101640001FB501235B420293FFF734FF1A4C0021C0
:1016500003901A480194FFF7E7F93220FEF78EFF56
:10166000174B00229A60FEF715FEFFF737FE201C8D
:1016700000F0D2FA01A802A90222FFF737FE0028E3
:1016800002D11048FFF7D0F90F4B21681A680F48B4
:10169000FFF7CAF900F090FA3220FEF76FFF0C480E
:1016A000FFF7C2F90B48FFF7BFF996204000FEF79D
:1016B00065FF00F01BFAFEE700FC00088A21000825
:1016C000001002409320000804FC0008B22100082A
:1016D000D4210008E5210008014B18887047C04656
:1016E000680E002030B50023934205DAC55CCC5C5F
:1016F000A54203D10133F7E7012000E0002030BD0F
:10170000F0B585B0041C0F1C151C684616490F2245
:101710001E1C00F0EBFABC4222D223783C2B1DD1D8
:10172000201C69460E22FFF7DDFF002816D0002E90
:1017300000D034600D48FFF777F900231A19927B27
:101740003C2A03D0EA5401335A2BF7D10022EA5441
:101750000748291CFFF768F9012002E00134DAE7A5
:10176000002005B0F0BDC0460C220008F32100089F
:10177000EB1F000808B5FFF763FF000000B59BB042
:10178000044901AA00230448FFF7BAFF01201BB057
:1017900000BDC04600000108005000080368012297
:1017A0009343F0B503604268224B0D1C89681340D7
:1017B0000B4343600268204B69681A40EB688BB0AA
:1017C0000B432969041C0B431343036082681B4BC2
:1017D00013406A691343836001A800F08DF8184B29
:1017E0009C4201D1079E05E0164B9C4201D1089E08
:1017F00000E0039E23682F68190400D57600391C89
:10180000301CFEF795FC391C051C301CFEF7D4FC7F
:101810007F080023B9425B41ED1823681A0404D500
:10182000094A2B075B0F15401D43ADB2A5810BB0D4
:10183000F0BDC046FFCFFFFFF3E9FFFFFFFCFFFF56
:101840000038014000440040F0FF0000012302681E
:10185000002901D0134301E09A43131C0360704731
:10186000C905C90D01857047808CC005C00D704742
:101870008268002903D08023DB01134301E0024B7F
:10188000134083607047C046FFBFFFFF8BB210B5A7
:10189000C9B201248C401B0A211C022B01D1043047
:1018A00002E0032B00D108300368002A02D019435C
:1018B000016001E08B43036010BDCBB210B5012481
:1018C0008AB29C40120A231C012A01D1026804E05A
:1018D000022A01D1426800E082681340C2690020F8
:1018E000834208D0090C01208840011C101C0840CC
:1018F000411E8841C0B210BDF8B54B4D041C68684C
:101900000C231840FEF70AFC1F1F1F1F1F1F1F1F5D
:10191000071F1F1F1D006E68C023B6026A68360FBE
:101920005B0202361A4201D1404807E03E4B404874
:10193000D96A0F2319400131FEF7FAFB704320608A
:1019400004E03C4B00E03A4B236000206A683A4BCD
:101950001206120F21689A5C0E1CD6406660321C7B
:101960006E687605760F9B5DDA40A2602B6BDE0514
:1019700001D4324B06E02C4B5B685E0401D4530863
:1019800000E09308E3602B6B5E0601D42C4B01E072
:1019900080231B0223612B6BDE0602D4244B636180
:1019A00000E061612F6B03231F4E1F4201D1A26132
:1019B00012E0376B1F40012F01D1A1610CE0376BA2
:1019C0001F40022F02D180231B0204E0366B3340FC
:1019D000032B01D1164BA361C0232F6B9B02124E28
:1019E0001F4201D1E26116E0376B80221F40520294
:1019F000974201D1E1610EE0316B802219409202E1
:101A0000914202D180231B0204E0326B1A409A42B9
:101A100001D1074BE3612B6B1A0602D4054B2362FD
:101A200000E02062F8BDC0460010024000093D0001
:101A300000127A00006CDC024C040020809FD5006C
:101A400012800000044B5A69002902D010435861EB
:101A500001E082435A61704700100240044B9A69CA
:101A6000002902D01043986101E082439A617047D7
:101A700000100240044BDA69002902D01043D861FB
:101A800001E08243DA61704700100240827870B54D
:101A90000378002A1DD09908124A03248900891866
:101AA0002340C022A3409200FF248D58261C9E4054
:101AB000B5434678B60134409C402B1C23438B50E1
:101AC00002781F231A40012393401A1C054B1A6009
:101AD00006E01F22134001229A40131C024AD367DA
:101AE00070BDC04600E100E004E100E0014A024BA5
:101AF0001A607047CCCC000000300040F7B50B688E
:101B0000019300230124019A9C402240A2422CD13F
:101B10000D796C1E012C14D887685C000326A64042
:101B2000B74387604E798768A640341C3C43846085
:101B30008488944384808A7984889A40224392B22C
:101B400082805A00032407689440E44327400760DA
:101B5000076895403D430560C5682C40C460CD7959
:101B6000C46895402A1C2243C2600133102BC9D19E
:101B7000F7BD07230B40C9088900401810B5016A5A
:101B80009B000F249C40A1430162016A9A40131CF0
:101B90000B43036210BD0000044B1A69110603D504
:101BA000034A5A60034A5A607047C0460020024008
:101BB00023016745AB89EFCD024B80211A690A43A7
:101BC0001A61704700200240014BD8607047C04640
:101BD00000200240074B0120DA68024209D1DA688E
:101BE0000220D10605D4D868042318404342584146
:101BF000033070470020024010B5041CFFF7EAFFD5
:101C0000012805D1002C05D0FFF7E4FF013CF7E7E0
:101C1000002C00D1052010BD70B5061CB0200003BB
:101C2000FFF7EAFF042810D1084C0225236940225F
:101C30002B43236166612369B020134323610003B2
:101C4000FFF7DAFF2369AB43236170BD0020024038
:101C5000F7B5071CB020002300030E1C0193FFF70B
:101C6000CBFF042818D10D4C01252369B0202B434C
:101C70002361B3B23B800003FFF7BEFF042808D105
:101C800002370197019B360CB0201E800003FFF73E
:101C9000B3FF2369AB432361FEBDC0460020024071
:101CA00070B50E4B0E4D0024ED1AAD101E1CAC424B
:101CB00004D0A300F35898470134F8E700F03AF84D
:101CC000084B094D0024ED1AAD101E1CAC4204D087
:101CD000A300F35898470134F8E770BDAC22000820
:101CE000AC220008AC220008B022000810B5002386
:101CF000934203D0CC5CC4540133F9E710BD0023F8
:101D0000C25C0133002AFBD1581E704730B5031C5A
:101D1000002A07D00C7801335D1E013A2C70013186
:101D2000002CF5D19A18934203D000211970013389
:101D3000F9E730BDF8B5C046F8BC08BC9E46704710
:0C1D4000F8B5C046F8BC08BC9E467047D1
:101D4C0000C20100000000000000000000000000C4
:101D5C000C0000000000000000C2010000000000A8
:101D6C0000000000000000000C000000000100005A
:101D7C00A01D00080000002000440040FF000000EF
:101D8C00FF0000000A75736172743220696E697409
:101D9C0000000000000002000000004804000000E9
:101DAC0000000200020001000000004808000000D2
:101DBC000000020003000100000000000000000011
:101DCC000000000000000000E81D000818000020C2
:101DDC0000380140FF000000E80300000040000054
:101DEC000000004800040000000002000A0001008E
:101DFC000000004800020000000002000900010081
:101E0C000000004800100000000002000C0001005F
:101E1C00286E756C6C29000A206D796275732069C7
:101E2C006E6974000A2075736172743120696E6971
:101E3C0074000A0D525334383520616464723A30A0
:101E4C00782578000A206372635F6572726F720086
:101E5C000A206574785F6572726F72000A0D74697E
:101E6C006D656F757400424F4F544C4F4144455251
:101E7C002056312E302E30000A2070696E675F427A
:101E8C004C006E61636B2120756E6B6E6F776E20EC
:101E9C00636F6D6D616E643A30782578000A6D79E8
:101EAC006275732073746174697374696373000A67
:101EBC00416464723A25303278000A72785F746F2C
:101ECC00745F6D73675F636E743A2564000A727891
:101EDC005F6D73675F636E74202020203A25640069
:101EEC000A72785F6574785F6572725F636E743ABC
:101EFC002564000A72785F74696D656F75745F6331
:101F0C006E743A2564000A72785F6372635F65725F
:101F1C00725F636E743A2564000A0A0A000A3D3E39
:101F2C00000A4E455720424C41000A417267756DBC
:101F3C00656E7425643D2573000A52554E3A25731F
:101F4C00006F73635F6C6F2031000A414444523A56
:101F5C003000000017200008651300080520000859
:101F6C001C2000088D1200082020000835200008D5
:101F7C0049110008352000083B2000087D17000897
:101F8C004720000862200008751700086920000827
:101F9C000A48656C700A000A436D64206C6973749E
:101FAC003A002025732C000A556E6B6E6F776E20ED
:101FBC00706172616D65746572000A2020252D3187
:101FCC003573202573000A556E6B6E6F776E206328
:101FDC006F6D6D616E64000A2020253132732025EF
:101FEC0073000A4572726F723A556E6B6E6F776E34
:101FFC0020436F6D6D616E64003C2D6C206F722000
:10200C00636D643E207072696E742068656C70003C
:10201C00626C6100746573742072756E20636D64FC
:10202C005F70726F636573730072657365740073B0
:10203C0065617263685F617070760073656172636D
:10204C0068206170706C69636174696F6E2076656D
:10205C007273696F6E0065786974424C00657869BB
:10206C007420426F6F74204C6F61646572000A7249
:10207C0065736574206D63753A28696E7465726E4C
:10208C00616C20574429000A20666C6173682077C4
:10209C00726974653A204F4B000A20666C61736854
:1020AC002077726974653A204552524F52000A20CB
:1020BC007273343835206164647265737320696E91
:1020CC0020666C6173683A3078257800746F646FA1
:1020DC003A20656E74657220626F6F746C6F616408
:1020EC00657221000A20676F696E6720746F206229
:1020FC006F6F746C6F616465722120525334383584
:10210C0020616464723A30782578000A20626F6F1F
:10211C00746C6F6164657220666C61673A2030780C
:10212C0025782030782578000A0D20666C6173685C
:10213C005F7772697465206164647265737320657E
:10214C0072726F72212121000A0D20666C61736816
:10215C0020736563746F72206572617365203078CB
:10216C002578003A4552524F523A30782578000A79
:10217C000D206677726974653A30782578000A20EC
:10218C00676F696E6720746F206170706C69636132
:10219C0074696F6E21205253343835206164647237
:1021AC003A30782578000A20666C61736820636683
:1021BC00673A2020666C61672D3078257820616441
:1021CC0064722D30782578000A0D20666C61736876
:1021DC00206C6F636B656421000A0D2057445420FA
:1021EC00726573657421000A0D2076657273696FD0
:1021FC006E206461746120666F756E64213A2000F4
:10220C003C76657273696F6E5F646174613E000A3F
:10221C000D666C6173685F65726173655F746F5F87
:10222C00656E64000A0D206F6C64207665727369AC
:10223C006F6E206461746120616464723A30782539
:10224C0078000A0D2065726173696E672070616792
:10225C0065203078257800203A4F4B00203A4552C3
:10226C00524F52000A0D6F6C642076657273696F61
:10227C006E2064617461206E6F742064656C65748B
:10228C00656421000A0D6F6C642076657273696F4A
:10229C006E20646174612064656C657465642100F2
:0422AC00E90000083D
:0422B000C100000861
:1022B400000000000000000000000000000000001A
:1022C4008F050020900400200000000000000000A2
:1022D40000000000000000008E0600208D07002092
:1022E40000000000000000000102030406070809C2
:1022F400006CDC020100000000310168656C7000B4
:1023040000000000000000000000000000000000C9
:1023140000000000000000000000000000000000B9
:1023240000000000000000000000000000000000A9
:102334000000000000000000000000000000000099
:102344000000000000000000000000000000000089
:102354000000000000000000000000000000000079
:102364000000000000000000000000000000000069
:102374000000000000000000000000000000000059
:102384000000000000000000000000000000000049
:102394000000000000000000000000000000000039
:1023A4000000000000000000000000000000000029
:1023B4000000000000000000000000000000000019
:1023C4000000000000000000000000000000000009
:1023D40000000000000000000000000000000000F9
:1023E40000000000000000000000000000000000E9
:1023F40000000000000000000000000000000000D9
:1024040000000000000000000000000000000000C8
:1024140000000000000000000000000000000000B8
:1024240000000000000000000000000000000000A8
:102434000000000000000000000000000000000098
:102444000000000000000000000000000000000088
:102454000000000000000000000000000000000078
:102464000000000000000000000000000000000068
:102474000000000000000000000000000000000058
:102484000000000000000000000000000000000048
:102494000000000000000000000000000000000038
:1024A4000000000000000000000000000000000028
:1024B4000000000000000000000000000000000018
:1024C4000000000000000000000000000000000008
:1024D40000000000000000000000000000000000F8
:1024E40000000000000000000000000000000000E8
:1024F4000000000000000000000000000000C1C057
:1025040081C1400101C3C003800241C201C6C006AB
:10251400800741C70005C1C581C4400401CCC00C7B
:10252400800D41CD000FC1CF81CE400E000AC1CA3B
:1025340081CB400B01C9C009800841C801D8C0182B
:10254400801941D9001BC1DB81DA401A001EC1DEAB
:1025540081DF401F01DDC01D801C41DC0014C1D49B
:1025640081D5401501D7C017801641D601D2C012BB
:10257400801341D30011C1D181D0401001F0C0308B
:10258400803141F10033C1F381F240320036C1F6AB
:1025940081F7403701F5C035803441F4003CC1FC7B
:1025A40081FD403D01FFC03F803E41FE01FAC03A3B
:1025B400803B41FB0039C1F981F840380028C1E86B
:1025C40081E9402901EBC02B802A41EA01EEC02EAB
:1025D400802F41EF002DC1ED81EC402C01E4C0249B
:1025E400802541E50027C1E781E640260022C1E2BB
:1025F40081E3402301E1C021802041E001A0C060CB
:10260400806141A10063C1A381A240620066C1A6AA
:1026140081A7406701A5C065806441A4006CC1AC7A
:1026240081AD406D01AFC06F806E41AE01AAC06A3A
:10263400806B41AB0069C1A981A840680078C1B82A
:1026440081B9407901BBC07B807A41BA01BEC07EAA
:10265400807F41BF007DC1BD81BC407C01B4C0749A
:10266400807541B50077C1B781B640760072C1B2BA
:1026740081B3407301B1C071807041B00050C1900A
:10268400819140510193C053805241920196C056AA
:10269400805741970055C19581944054019CC05C7A
:1026A400805D419D005FC19F819E405E005AC19A3A
:1026B400819B405B0199C059805841980188C0486A
:1026C40080494189004BC18B818A404A004EC18EAA
:1026D400818F404F018DC04D804C418C0044C1849A
:1026E400818540450187C047804641860182C042BA
:1026F400804341830041C18181804040000000004B
:0C27040001020304010203040607080997
:0400000508000705E3
:00000001FF
